:100000000C9478000C948C000C948C000C948C0054
:100010000C948C000C948C000C948C000C948C0030
:100020000C948C000C948C000C948C000C948C0020
:100030000C948C000C948C000C948C000C948C0010
:100040000C948C000C9451030C948C000C948C0038
:100050000C948C000C948C000C948C000C948C00F0
:100060000C948C000C948C000C948C000C948C00E0
:100070000C948C000C948C000C948C000C948C00D0
:100080000C948C000C948C000C948C000C948C00C0
:100090000C948C000C948C000C948C000C948C00B0
:1000A0000C948C000C948C000C948C000C948C00A0
:1000B0000C948C000C948C000C948C000C948C0090
:1000C0000C948C000C948C000C948C000C948C0080
:1000D0000C948C000C948C000C948C000C948C0070
:1000E0000C948C000C9438010C944E030C944B032C
:1000F00011241FBECFEFD1E2DEBFCDBF00E00CBFA9
:1001000016E0A0E0B2E001C01D92A435B107E1F70E
:100110000E94F7030C9425040C9400000F921F9288
:100120002F923F924F925F926F927F928F929F9207
:10013000AF92BF92CF92DF92EF92FF920F931F93F5
:100140002F933F934F935F936F937F938F939F93DF
:10015000AF93BF93CF93DF93EF93FF93FCB7FF93DE
:10016000FFB7FF93EDB7FEB7E0935206F093530647
:10017000E0915006F0915106EDBFFEBFFF91FFBF29
:10018000FF91FCBFFF91EF91DF91CF91BF91AF91B4
:100190009F918F917F916F915F914F913F912F919F
:1001A0001F910F91FF90EF90DF90CF90BF90AF9095
:1001B0009F908F907F906F905F904F903F902F9087
:1001C0001F900F9018950F921F922F923F924F926F
:1001D0005F926F927F928F929F92AF92BF92CF92D7
:1001E000DF92EF92FF920F931F932F933F934F93C2
:1001F0005F936F937F938F939F93AF93BF93CF93AF
:10020000DF93EF93FF93FCB7FF93FFB7FF93EDB737
:10021000FEB7E0935006F0935106E0915206F0913C
:100220005306EDBFFEBFFF91FFBFFF91FCBFFF91E3
:10023000EF91DF91CF91BF91AF919F918F917F917E
:100240006F915F914F913F912F911F910F91FF906F
:10025000EF90DF90CF90BF90AF909F908F907F9066
:100260006F905F904F903F902F901F900F90089548
:100270008091020290910302892B69F0F894E09139
:100280000602F0910702E15FFE4F83E090E0918368
:1002900080830C94E300089508950F931F93CF93E8
:1002A000DF93D901FC01329620E031E0EF018901B2
:1002B000199201501040E1F7EC01CF5FDE4FE8E307
:1002C000F1E0E8832197F883FC01E150FF4F1082B1
:1002D00031976083319770833197108230E0329389
:1002E0003F5F3232E1F79C0127523F4FEC013983E7
:1002F0002883FC01E35FFE4F608371833296118295
:10030000108220910002309101023B9731832083BB
:100310003396B183A08331974083349781E090E096
:1003200091838083DF91CF911F910F9108959A015E
:1003300040910002509101024430510541F1AAE080
:10034000B3E0E0E0F0E04D915C911197452B31F086
:100350003196AF5EBE4FE430F105A9F7A0910002DF
:10036000B09101021196B0930102A093000241E105
:1003700051E0E49FD001E59FB00DF49FB00D112432
:10038000462FBC01CD01885F9D4F0C944D0108950F
:100390002091020230910302232B09F1F89420915D
:1003A000060230910702F901E15FFE4FA1E0B0E0E3
:1003B000B183A083329791838083809100029091D2
:1003C000010239979183808333965183408331971B
:1003D00060833396118210820E94E30002C00E9463
:1003E0009701E0910602F0910702EC5FFE4F8081D9
:1003F000918108958091020290910302892B71F0FE
:10040000F894E0910602F0910702E15FFE4F82E06E
:1004100090E0918380830E94E30078940895E091B6
:100420000602F0910702E95FFE4F808191810895F5
:100430002091060230910702F901EC5FFE4F4081E6
:1004400051814817590731F440910202509103023B
:10045000452B29F4ECE0F3E020E030E00CC0F89408
:10046000F901E15FFE4F84E090E0918380830E9478
:10047000E30078940895408151814817590791F419
:1004800080E485B981E191E0289FF001299FF00D7A
:10049000389FF00D1124EF5EFC4F81E090E09183D6
:1004A000808308952F5F3F4FEF5EFE4F243031056C
:1004B00011F70895ECE0F3E020E030E04081518155
:1004C0004817590771F481E191E0289FF001299FB5
:1004D000F00D389FF00D1124EF5EFC4F1182108259
:1004E00008952F5F3F4FEF5EFE4F2430310531F707
:1004F0000895F8942091060230910702F901E15F16
:10050000FE4F45E050E051834083349791838083D0
:100510000E94E30078940895089508950895089539
:1005200008950895109201021092000210920302A1
:10053000109202021092050210920402E8E0F2E02A
:1005400081E191E0DF019C011D9221503040E1F7F3
:10055000DF01AE5FBE4F1D921C92EF5EFE4F36E094
:10056000EC34F30779F708951F93CF93DF938091CD
:10057000020290910302892B09F06FC08091000262
:1005800090910102892B09F468C0F89481E090E011
:1005900090930302809302020E949C03C1E0D0E08A
:1005A00010EFE0910602F0910702DF01A15FBE4F5C
:1005B00011961C921E928081918190935106809396
:1005C00050060E948E00E0910602F0910702809191
:1005D00050069091510691838083DF01A15FBE4F49
:1005E0008D919C918230910561F198F4009749F1C9
:1005F0000197B9F6DF01A95FBE4F4D915C9111974C
:1006000011976C91E35FFE4F808191810E94970169
:10061000C8CF8430910579F0D8F0059711F615B957
:100620008091060290910702FC01E75FFE4FD183A3
:10063000C083379708C0DF01A75FBE4F1196DC93D8
:10064000CE93EE5FFE4FD183C0830E949C03A9CF5F
:10065000EE5FFE4F11821082F8CFDF91CF911F9194
:1006600008958091020290910302892B71F0F89411
:10067000E0910602F0910702E15FFE4F82E090E018
:10068000918380830E94E300789408958091020210
:1006900090910302089580E285B9FECF80E485B988
:1006A000FECF1F920F920FB60F9211240BB60F922E
:1006B0002F933F934F935F936F937F938F939F936A
:1006C000AF93BF93EF93FF930E944603892B09F1E9
:1006D00080914C0690914D06019690934D06809323
:1006E0004C06069721F482E090E00E941802809167
:1006F0004C0690914D060C9741F482E090E00E94E8
:100700005A0210924D0610924C060E94FA0180E89F
:1007100085B9FF91EF91BF91AF919F918F917F919B
:100720006F915F914F913F912F910F900BBE0F9062
:100730000FBE0F901F90189521E131E080910402C7
:1007400090910502829FF001839FF00D929FF00D22
:100750001124E65FFC4F80819181019761F08091C7
:1007600004029091050201968370992790930502E7
:1007700080930402E3CF8091040290910502829F4E
:10078000F001839FF00D929FF00D1124EF5EFC4F5E
:1007900080819181019719F3209104023091050223
:1007A00081E191E0289FF001299FF00D389FF00D25
:1007B0001124E85FFD4FF0930702E0930602808169
:1007C00091819093510680935006EE5FFE4F82E038
:1007D00090E09183808380910402909105020196BC
:1007E000837099279093050280930402089580EF07
:1007F00084B915B80E94920240E050E060E08EE4B7
:1008000093E00E94C80140E050E060E08BE493E098
:100810000E94C80110928000E1E8F0E080818860C9
:1008200080838081846080838AE698E19093890048
:1008300080938800EFE6F0E08081826080831092F0
:0E0840008500109284000C94B402F894FFCF4F
:00000001FF
